:100000000C9467000C948F000C948F000C948F005C
:100010000C948F000C948F000C948F000C948F0024
:100020000C948F000C948F000C948F000C948F0014
:100030000C948F000C948F000C948F000C948F0004
:100040000C94DD010C948F000C948F000C948F00A5
:100050000C948F000C948F000C948F000C948F00E4
:100060000C948F000C948F006E0174017E018C0142
:100070008E0194019E01AC01BE01C0010000000888
:10008000000201000003040700000000000000005F
:1000900000000000250028002B00000000002400C4
:1000A00027002A00040404040404040402020202D7
:1000B000020203030303030301020408102040802B
:1000C0000102040810200102040810204103112439
:1000D0001FBECFEFD8E0DEBFCDBF11E0A0E0B1E0A2
:1000E000EAEFF7E002C005900D92A030B107D9F712
:1000F00021E0A0E0B1E001C01D92A332B207E1F718
:1001000010E0C7E6D0E004C02197FE010E94DA03A8
:10011000C636D107C9F70E9427020C94FB030C9442
:10012000000090E0FC01E854FF4F2491FC01EC55E5
:10013000FF4F8491882399F090E0880F991FFC016C
:10014000E656FF4FA591B491FC01E057FF4F859112
:1001500094918FB7F894EC91E22BEC938FBF0895B4
:1001600090E0FC01E458FF4F2491FC01E854FF4F5C
:100170003491FC01EC55FF4FE491EE2309F43CC0AF
:10018000222339F1233091F038F42130A9F02230C4
:1001900001F584B58F7D12C0273091F02830A1F091
:1001A0002430B9F4809180008F7D03C0809180005D
:1001B0008F77809380000DC084B58F7784BD09C090
:1001C0008091B0008F7703C08091B0008F7D8093C5
:1001D000B000F0E0EE0FFF1FE057FF4FA591B49184
:1001E0009FB7F894611104C08C913095382302C0F8
:1001F000EC913E2B3C939FBF08950F931F93CF9399
:10020000DF93EC018B01888599850297F1F46130C9
:10021000710569F024F4672BC1F460E009C0623015
:10022000710559F06330710581F460E007C061E049
:100230008C850E94B00061E005C061E08C850E9461
:10024000B00060E08E850E94B00088859985049793
:10025000B9F501301105B1F04CF40115110581F526
:1002600061E08C850E94B00060E011C00230110591
:10027000B9F00330110521F561E08C850E94B000D2
:1002800060E013C060E08C850E94B00061E08E8564
:100290000E94B00061E088890E94B00060E00DC05B
:1002A00060E08C850E94B00061E08E850E94B00005
:1002B00060E088890E94B00061E08A890E94B000F5
:1002C00088859985059709F073C00A30110508F0F3
:1002D0006FC0F801EC5CFF4F0C94DA0360E08C8592
:1002E0000E94B00061E051C060E08C850E94B000C7
:1002F00061E08E850E94B00060E04BC060E08C85BC
:100300000E94B00061E08E850E94B00060E08889A4
:100310000E94B00061E041C060E001C061E08C85F6
:100320000E94B00061E005C061E08C850E94B000D1
:1003300060E08E850E94B00060E009C061E08C85BD
:100340000E94B00060E08E850E94B00061E0888964
:100350000E94B00061E00DC061E08C850E94B00099
:1003600060E08E850E94B00061E088890E94B00044
:1003700060E08A890E94B00060E013C061E001C0C3
:1003800060E08C850E94B00060E08E850E94B00025
:1003900061E088890E94B00060E08A890E94B00014
:1003A00061E08C89DF91CF911F910F910C94B00087
:1003B000DF91CF911F910F9108951F920F920FB669
:1003C0000F9211242F933F938F939F93AF93BF93DB
:1003D0008091010190910201A0910301B09104016B
:1003E0003091000123E0230F2D3720F40196A11D49
:1003F000B11D05C026E8230F0296A11DB11D209353
:1004000000018093010190930201A0930301B09336
:1004100004018091050190910601A0910701B0911E
:1004200008010196A11DB11D80930501909306015D
:10043000A0930701B0930801BF91AF919F918F9155
:100440003F912F910F900FBE0F901F901895CF9353
:10045000DF93CDB7DEB76A970FB6F894DEBF0FBE55
:10046000CDBF789484B5826084BD84B5816084BD3D
:1004700085B5826085BD85B5816085BD80916E0042
:10048000816080936E001092810080918100826073
:1004900080938100809181008160809381008091B0
:1004A00080008160809380008091B100846080939F
:1004B000B1008091B00081608093B00080917A009B
:1004C000846080937A0080917A00826080937A00C1
:1004D00080917A00816080937A0080917A008068B0
:1004E00080937A001092C100CC24CA9453E0D52E98
:1004F000E12CF12C412C67E8562E63E9662E63E06F
:10050000762E70E0272E70E0372E8AE1E9E0F1E0E8
:10051000DE01119601900D928A95E1F780E48093B7
:100520007C0080917A00806480937A0080917A00C8
:1005300086FDFCCFA091780080917900B0E0B82BC7
:1005400024E630E00E94E003A70196010E947603B2
:1005500049015A01121613060CF08CC02F81388500
:10056000032E000C440B550BC301B2010E9476030D
:10057000CA01B9019401990C440B550B0E947603F2
:100580002B833C834D835E8381E090E09A83898353
:1005900004E110E00115110509F46CC03FB7F894AF
:1005A0008091050190910601A0910701B091080189
:1005B00026B5A89B05C02F3F19F00196A11DB11DBE
:1005C0003FBFBA2FA92F982F8827820F911DA11DF9
:1005D000B11D42E0880F991FAA1FBB1F4A95D1F792
:1005E0004F89588D698D7A8D4C015D01841A950A69
:1005F000A60AB70A4B815C816D817E8184169506BF
:10060000A606B70638F28F8B988FA98FBA8F2981EB
:100610003A818B859C852130310559F401969C8760
:100620008B872F8138858217930771F41C861B8670
:100630000BC0892B21F48F8198859C878B878B85B4
:100640009C8501979C878B870150110929853A85E4
:100650008B859C852530310519F46AE070E002C075
:1006600064E070E00E94C603BC01CE0101960E94C6
:10067000FD0090CF2114310409F447CF0E940000FF
:1006800044CFCF93DF93C9E0D1E01B861A8619824D
:1006900018821E8A1F8A188E198E80E098E09F8328
:1006A0008E8388E090E09D878C8789E090E09F872B
:1006B0008E878AE090E0998B888B8BE090E09B8B13
:1006C0008A8B88E00E9491008E850E949100888923
:1006D0000E9491008A890E9491001D8A1C8A84E0F0
:1006E00090E099878887DF91CF910895052E97FB39
:1006F0001EF400940E948D0357FD07D00E949503BD
:1007000007FC03D04EF40C948D0350954095309522
:1007100021953F4F4F4F5F4F08959095809570956D
:1007200061957F4F8F4F9F4F0895A1E21A2EAA1B0C
:10073000BB1BFD010DC0AA1FBB1FEE1FFF1FA21791
:10074000B307E407F50720F0A21BB30BE40BF50B8E
:10075000661F771F881F991F1A9469F76095709517
:10076000809590959B01AC01BD01CF010895A29F9A
:10077000B001B39FC001A39F700D811D1124911D75
:10078000B29F700D811D1124911D089597FB072EB6
:1007900016F4009407D077FD09D00E94E70307FC08
:1007A00005D03EF4909581959F4F08957095619581
:1007B0007F4F0895EE0FFF1F0590F491E02D0994EF
:1007C0000E94B703B7FF0895821B930B0895AA1BDD
:1007D000BB1B51E107C0AA1FBB1FA617B70710F02C
:1007E000A61BB70B881F991F5A95A9F7809590955E
:0A07F000BC01CD010895F894FFCF7D
:00000001FF
