:100000000C9459000C9481000C9481000C94810094
:100010000C9481000C9481000C9481000C9481005C
:100020000C9481000C9481000C9481000C9481004C
:100030000C9481000C9481000C9481000C9481003C
:100040000C9419040C9481000C94E7030C94C103E4
:100050000C9481000C9481000C9481000C9481001C
:100060000C9481000C948100000000002500280001
:100070002B00040404040404040402020202020229
:10008000030303030303010204081020408001025C
:1000900004081020010204081020000000080002DB
:1000A00001000003040700000000000000006304DA
:1000B0005D0711241FBECFEFD8E0DEBFCDBF22E029
:1000C000A6E2B1E001C01D92A233B207E1F711E050
:1000D000A0E0B1E0ECE8F7E102C005900D92A63295
:1000E000B107D9F710E0C8E5D0E004C02197FE01C0
:1000F0000E94B709C735D107C9F70E94EB040C94D9
:10010000B90B0C940000E2EAF0E09491EEE8F0E024
:100110002491EAE7F0E0E491EE2309F43CC099234E
:1001200039F1933091F038F49130A9F0923001F523
:1001300094B59F7D12C0973091F09830A1F0943023
:10014000B9F4909180009F7D03C0909180009F77CB
:10015000909380000DC094B59F7794BD09C0909195
:10016000B0009F7703C09091B0009F7D9093B00046
:10017000F0E0EE0FFF1FE859FF4FA591B4919FB734
:10018000F894811104C08C912095282302C0EC9131
:100190002E2B2C939FBF0895CF92DF92EF92FF9268
:1001A0000F931F93CF93DF936C017A018B01C0E013
:1001B000D0E0CE15DF0581F0D8016D918D01D6011B
:1001C000ED91FC910190F081E02DC6010995892BFC
:1001D00011F02196EECF7E01C701DF91CF911F91E3
:1001E0000F91FF90EF90DF90CF900895089580E0F9
:1001F00090E00895FC01538D448D252F30E0842F2D
:1002000090E0821B930B541710F0CF96089501973E
:100210000895FC01918D828D981761F0828DDF0128
:10022000A80FB11D5D968C91928D9F5F9F73928FE9
:1002300090E008958FEF9FEF0895FC01918D828DDE
:10024000981731F0828DE80FF11D858D90E00895AB
:100250008FEF9FEF0895FC01918D228D892F90E003
:10026000805C9F4F821B91098F73992708958BE8BB
:1002700091E00E942B0121E0892B09F420E0822FDC
:100280000895FC01848DDF01A80FB11DA35ABF4F53
:100290002C91848D90E001968F739927848FA68985
:1002A000B7892C93A089B1898C91837080648C93D9
:1002B000938D848D981306C00288F389E02D808188
:1002C0008F7D80830895EF92FF920F931F93CF93BA
:1002D000DF93EC0181E0888F9B8D8C8D981305C096
:1002E000E889F989808185FD26C0F62E0B8D10E006
:1002F0000F5F1F4F0F731127E02E8C8DE8120CC07B
:100300000FB607FCFACFE889F989808185FFF5CF20
:10031000CE010E944101F1CF8B8DFE01E80FF11D4E
:10032000E35AFF4FF0829FB7F8940B8FEA89FB895D
:10033000808180620AC09FB7F894EE89FF8960834C
:10034000E889F98980818370806480839FBF81E020
:1003500090E0DF91CF911F910F91FF90EF90089562
:10036000CF93DF93EC01888D8823C9F0EA89FB895C
:10037000808185FD05C0A889B9898C9186FD0FC053
:100380000FB607FCF5CF808185FFF2CFA889B98928
:100390008C9185FFEDCFCE010E944101E7CFDF9127
:1003A000CF9108953FB7F8948091530190915401F3
:1003B000A0915501B091560126B5A89B05C02F3FCD
:1003C00019F00196A11DB11D3FBFBA2FA92F982F7B
:1003D0008827820F911DA11DB11DBC01CD0142E0F6
:1003E000660F771F881F991F4A95D1F70895EEE28F
:1003F000F1E0119211921192119281E0EE34F8071E
:10040000C1F708958F929F92AF92BF92CF92DF92E1
:10041000EF92FF921F93CF93DF938BE891E00E94BE
:100420002B01892B09F491C1809159018823D1F0C6
:100430008BE891E00E940901833709F086C181E0D1
:100440008093690163E78BE891E0DF91CF911F9181
:10045000FF90EF90DF90CF90BF90AF909F908F90E4
:100460000C9463018BE891E00E940901C82F0E945F
:10047000D2014B015C0162E3C62ED12CE12CF12CA0
:100480000E94D201DC01CB0188199909AA09BB0994
:10049000883E9340A105B10598F321E0C21AD10826
:1004A000E108F10888EE880E83E0981EA11CB11CBB
:1004B000C114D104E104F10419F78BE891E00E9422
:1004C0002B01892B09F483C0C63609F080C08BE864
:1004D00091E00E942B01892B91F18BE891E00E9421
:1004E0001D01C82F082E000C990BC0970A9738F5EC
:1004F0008BE891E00E940901CB300CF0C0532091B1
:100500002E0130912F014091300150913101AAE02C
:10051000B0E00E948208CC2ECC0FDD08EE08FF0868
:10052000DC01CB018C0D9D1DAE1DBF1D80932E01E6
:1005300090932F01A0933001B0933101C8CFC090A8
:100540002E01D0902F01E0903001F090310181E038
:100550008093680110926901609157017091580170
:1005600080E090E00E9463076093600170936101F6
:10057000809362019093630110926401109265016F
:10058000109266011092670180E090E0FC01EE0F8E
:10059000FF1FEE0FFF1FE659FE4FC082D182E2829D
:1005A000F38201968830910589F70E94F70181E076
:1005B00080935901DF91CF911F91FF90EF90DF90D1
:1005C000CF90BF90AF909F908F900C9483008BE85A
:1005D00091E00E942B01892B09F4B7C0C03709F0C4
:1005E000B4C0C0E0D0E08BE891E00E942B01892BE1
:1005F00019F480E090E03BC08BE891E00E941D017F
:10060000182F082E000C990BC0970A9730F58BE82D
:1006100091E00E9409011B300CF01053FE01EE0F17
:10062000FF1FEE0FFF1FE25DFE4F208131814281EF
:100630005381AAE0B0E00E948208C12E110FDD08AC
:10064000EE08FF08DC01CB018C0D9D1DAE1DBF1D0A
:1006500080839183A283B383C6CF8BE891E00E940D
:1006600009012196C830D1050CF4BDCFC2CFFC01E1
:10067000EE0FFF1FEE0FFF1FE659FE4F1082118293
:100680001282138201968830910589F710926901D0
:1006900081E080936801CEE2D1E0DE0180E090E06D
:1006A0004D915D916D917D91FC01EE0FFF1FEE0F5D
:1006B000FF1FE659FE4F4083518362837383019687
:1006C0008830910569F70E94F70180E00E9483005D
:1006D00080E090E0DC01499159916991799184170A
:1006E0009507A607B70710F4DB01CA0121E0CE3455
:1006F000D20789F780932A0190932B01A0932C01B4
:10070000B0932D01609157017091580180E090E005
:100710000E9463076093600170936101809362019E
:10072000909363011092640110926501109266012A
:100730001092670110925A0110925B0110925C01B5
:1007400010925D0181E080935901DF91CF911F915B
:10075000FF90EF90DF90CF90BF90AF909F908F90E1
:1007600008950E94370181110C940202089542E01D
:1007700050E068E171E08BE891E00C94CC000E94BD
:10078000A40B1F920F920FB60F9211242F933F9339
:100790004F935F936F937F938F939F93AF93BF9389
:1007A000EF93FF938BE891E00E944101FF91EF915D
:1007B000BF91AF919F918F917F916F915F914F9179
:1007C0003F912F910F900FBE0F901F9018951F9281
:1007D0000F920FB60F9211242F938F939F93EF9345
:1007E000FF93E0919B01F0919C018081E091A10138
:1007F000F091A20182FD12C090818091A4018F5FCF
:100800008F732091A501821751F0E091A401F0E0CF
:10081000E557FE4F958F8093A40101C08081FF9121
:10082000EF919F918F912F910F900FBE0F901F907E
:1008300018951F920F920FB60F9211242F933F938A
:100840008F939F93AF93BF9380914F0190915001ED
:10085000A0915101B091520130914E0123E0230F3C
:100860002D3720F40196A11DB11D05C026E8230FE8
:100870000296A11DB11D20934E0180934F019093CC
:100880005001A0935101B093520180915301909176
:100890005401A0915501B09156010196A11DB11DC1
:1008A0008093530190935401A0935501B093560146
:1008B000BF91AF919F918F913F912F910F900FBE5C
:1008C0000F901F90189510928E0110928D0188EE56
:1008D00093E0A0E0B0E080938F0190939001A0930B
:1008E0009101B09392018AE091E090938C01809302
:1008F0008B0185EC90E0909398018093970184ECB4
:1009000090E090939A018093990180EC90E090930D
:100910009C0180939B0181EC90E090939E018093D9
:100920009D0182EC90E09093A00180939F0186EC62
:1009300090E09093A2018093A1011092A4011092E3
:10094000A5011092A6011092A701109229021092FF
:10095000280210922B0210922A0210922D0210925D
:100960002C0261E070E080E090E00E94DE0A0097D7
:1009700089F0909329028093280210922B02109202
:100980002A0220912C0230912D02232BC1F4FC016C
:10099000108215C08091280290912902009711F0D1
:1009A0000E94550A109229021092280210922D02DC
:1009B00010922C0210922B0210922A02089510928B
:1009C0002D0210922C026AE171E080912802909130
:1009D00029020C94B20B789484B5826084BD84B5EE
:1009E000816084BD85B5826085BD85B5816085BD2A
:1009F00080916E00816080936E00109281008091E2
:100A00008100826080938100809181008160809369
:100A10008100809180008160809380008091B1008E
:100A200084608093B1008091B00081608093B000B9
:100A300080917A00846080937A0080917A0082604D
:100A400080937A0080917A00816080937A0080910F
:100A50007A00806880937A001092C100E0919B0137
:100A6000F0919C0182E08083E0919701F0919801E0
:100A70001082E0919901F0919A018FEC808310929D
:100A8000A301E0919F01F091A00186E08083E091B5
:100A90009D01F0919E01808180618083E0919D01A4
:100AA000F0919E01808188608083E0919D01F091AA
:100AB0009E01808180688083E0919D01F0919E017C
:100AC00080818F7D80838AB18C6F8AB984B18F6376
:100AD00084B98BB183708BB985B1807C85B9109254
:100AE00059011092680180E496E090935801809338
:100AF000570180E991E090935F0180935E010E942D
:100B0000F70111E0C3ECD5E010938A0180916A01EE
:100B100090916B01A0916C01B0916D01892B8A2B92
:100B20008B2BB1F05F9A80916A0190916B01A0913B
:100B30006C01B0916D010197A109B10980936A011F
:100B400090936B01A0936C01B0936D0110928A0198
:100B500080916E0190916F01A0917001B09171012F
:100B6000892B8A2B8B2BB1F05E9A80916E0190912C
:100B70006F01A0917001B09171010197A109B109B4
:100B800080936E0190936F01A0937001B0937101F7
:100B900010928A018091720190917301A091740169
:100BA000B0917501892B8A2B8B2BB1F05D9A8091C6
:100BB000720190917301A0917401B0917501019738
:100BC000A109B1098093720190937301A0937401FC
:100BD000B093750110928A0180917601909177010E
:100BE000A0917801B0917901892B8A2B8B2BB1F0E0
:100BF0005C9A8091760190917701A0917801B091F3
:100C000079010197A109B109809376019093770149
:100C1000A0937801B093790110928A0180917A01B2
:100C200090917B01A0917C01B0917D01892B8A2B51
:100C30008B2BB1F05B9A80917A0190917B01A0910E
:100C40007C01B0917D010197A109B10980937A01DE
:100C500090937B01A0937C01B0937D0110928A0157
:100C600080917E0190917F01A0918001B0918101DE
:100C7000892B8A2B8B2BB1F05A9A80917E0190910F
:100C80007F01A0918001B09181010197A109B10973
:100C900080937E0190937F01A0938001B0938101A6
:100CA00010928A018091820190918301A091840128
:100CB000B0918501892B8A2B8B2BB1F02D9A8091D5
:100CC000820190918301A0918401B09185010197E7
:100CD000A109B1098093820190938301A0938401BB
:100CE000B093850110928A018091860190918701CD
:100CF000A0918801B0918901892B8A2B8B2BB1F0AF
:100D00002C9A8091860190918701A0918801B091E1
:100D100089010197A109B109809386019093870108
:100D2000A0938801B093890110928A01CE010197A6
:100D3000F1F78BB183708BB985B18F7C85B98091C8
:100D40006901811108C080918A018823B9F18091DD
:100D50006801882399F149E050E06BE171E08BE88C
:100D600091E00E94CC000E94B7031092680180912C
:100D7000690181111092690180E090E0FC01EE0FA1
:100D8000FF1FEE0FFF1FE659FE4F108211821282E5
:100D9000138201968830910589F710925A011092BA
:100DA0005B0110925C0110925D011092590164E6A2
:100DB0008BE891E00E9463010E94B7038091640177
:100DC00090916501A0916601B09167010196A11D06
:100DD000B11D8093640190936501A0936601B09367
:100DE0006701C0906001D0906101E0906201F090D5
:100DF0006301609160017091610180916201909145
:100E000063014090640150906501609066017090AC
:100E1000670120E030E040EA52E40E94C4074B0141
:100E20005C01ACE8B0E0A30192010E9482086F5F10
:100E30007F4F8F4F9F4F0E9463079B01AC01C501FD
:100E4000B4010E9440099B01AC01C701B6010E9498
:100E5000D308609360017093610180936201909365
:100E6000630160915E0170915F01C0906001D0905C
:100E70006101E0906201F090630180E090E00E94E7
:100E80006307A70196010E94B20987FD10C0609117
:100E90005E0170915F0180E090E00E9463076093C3
:100EA0006001709361018093620190936301CE01B0
:100EB0000197F1F70E94B10327CE8091280290910B
:100EC00029020C94550AE89409C097FB3EF49095CA
:100ED0008095709561957F4F8F4F9F4F9923A9F013
:100EE000F92F96E9BB279395F695879577956795A2
:100EF000B795F111F8CFFAF4BB0F11F460FF1BC0E6
:100F00006F5F7F4F8F4F9F4F16C0882311F096E978
:100F100011C0772321F09EE8872F762F05C0662326
:100F200071F096E8862F70E060E02AF09A95660FDF
:100F3000771F881FDAF7880F9695879597F9089598
:100F4000990F0008550FAA0BE0E8FEEF16161706DA
:100F5000E807F907C0F012161306E407F50798F042
:100F6000621B730B840B950B39F40A2661F0232B5B
:100F7000242B252B21F408950A2609F4A140A695D7
:100F80008FEF811D811D08950E94D7070C9448089A
:100F90000E943A0838F00E94410820F0952311F091
:100FA0000C9431080C94370811240C947C080E948E
:100FB000590870F3959FC1F3950F50E0551F629F3C
:100FC000F001729FBB27F00DB11D639FAA27F00DA2
:100FD000B11DAA1F649F6627B00DA11D661F829FC9
:100FE0002227B00DA11D621F739FB00DA11D621FAE
:100FF000839FA00D611D221F749F3327A00D611DCB
:10100000231F849F600D211D822F762F6A2F1124AC
:101010009F5750409AF0F1F088234AF0EE0FFF1FDF
:10102000BB1F661F771F881F91505040A9F79E3F36
:10103000510580F00C9431080C947C085F3FE4F378
:10104000983ED4F3869577956795B795F795E7958C
:101050009F5FC1F7FE2B880F911D9695879597F995
:10106000089597F99F6780E870E060E008959FEF2A
:1010700080EC089500240A9416161706180609062F
:10108000089500240A9412161306140605060895FE
:10109000092E0394000C11F4882352F0BB0F40F486
:1010A000BF2B11F460FF04C06F5F7F4F8F4F9F4FC6
:1010B000089557FD9058440F551F59F05F3F71F048
:1010C0004795880F97FB991F61F09F3F79F08795AF
:1010D0000895121613061406551FF2CF4695F1DF38
:1010E00008C0161617061806991FF1CF86957105C8
:1010F000610508940895E894BB2766277727CB01FC
:1011000097F908950E94C408A59F900DB49F900D73
:10111000A49F800D911D112408952F923F924F920C
:101120005F926F927F928F929F92AF92BF92CF9277
:10113000DF92EF92FF920F931F93CF93DF93CDB780
:10114000DEB7CA1BDB0B0FB6F894DEBF0FBECDBFF8
:1011500009942A88398848885F846E847D848C84C9
:101160009B84AA84B984C884DF80EE80FD800C81D2
:101170001B81AA81B981CE0FD11D0FB6F894DEBFB5
:101180000FBECDBFED010895A29FB001B39FC00176
:10119000A39F700D811D1124911DB29F700D811DA3
:1011A0001124911D08955058BB27AA270E94EB08CF
:1011B0000C9448080E943A0838F00E94410820F038
:1011C00039F49F3F19F426F40C9437080EF4E09597
:1011D000E7FB0C943108E92F0E94590858F3BA171D
:1011E000620773078407950720F079F4A6F50C943D
:1011F0007B080EF4E0950B2EBA2FA02D0B01B90140
:1012000090010C01CA01A0011124FF27591B99F07C
:10121000593F50F4503E68F11A16F040A22F232F88
:10122000342F4427585FF3CF469537952795A795D8
:10123000F0405395C9F77EF41F16BA0B620B730B7F
:10124000840BBAF09150A1F0FF0FBB1F661F771FF0
:10125000881FC2F70EC0BA0F621F731F841F48F4A5
:10126000879577956795B795F7959E3F08F0B0CF2E
:101270009395880F08F09927EE0F97958795089515
:101280000E9454090C9448080E94410858F00E949A
:101290003A0840F029F45F3F29F00C9431085111CD
:1012A0000C947C080C9437080E94590868F3992321
:1012B000B1F3552391F3951B550BBB27AA27621752
:1012C0007307840738F09F5F5F4F220F331F441F5F
:1012D000AA1FA9F335D00E2E3AF0E0E832D0915093
:1012E0005040E695001CCAF72BD0FE2F29D0660F80
:1012F000771F881FBB1F261737074807AB07B0E8C3
:1013000009F0BB0B802DBF01FF2793585F4F3AF0C8
:101310009E3F510578F00C9431080C947C085F3F97
:10132000E4F3983ED4F3869577956795B795F7954E
:101330009F5FC9F7880F911D9695879597F9089536
:10134000E1E0660F771F881FBB1F621773078407D2
:10135000BA0720F0621B730B840BBA0BEE1F88F7E1
:10136000E09508950E94A00708F48FEF0895EE0F0E
:10137000FF1F0590F491E02D09940F931F93CF93D5
:10138000DF938230910510F482E090E0E09130022A
:10139000F091310220E030E0A0E0B0E0309719F1A8
:1013A000408151810281138148175907C8F0841781
:1013B000950769F4109731F012960C9312971396D3
:1013C0001C9327C0009330021093310222C02115D4
:1013D000310519F04217530718F49A01BD01EF01C6
:1013E000DF01F801DBCF21153105F9F0281B390B9E
:1013F0002430310580F48A819B816115710521F0CB
:10140000FB019383828304C0909331028093300266
:10141000FE01329644C0FE01E20FF31F81939193C7
:1014200022503109398328833AC020912E0230910D
:101430002F02232B41F420910201309103013093BC
:101440002F0220932E0220910001309101012115DD
:10145000310541F42DB73EB740910401509105018B
:10146000241B350BE0912E02F0912F02E217F307B7
:10147000A0F42E1B3F0B2817390778F0AC014E5F04
:101480005F4F2417350748F04E0F5F1F50932F0210
:1014900040932E028193919302C0E0E0F0E0CF01EF
:1014A000DF91CF911F910F910895CF93DF93009714
:1014B00009F481C0FC01329713821282A09130029C
:1014C000B0913102109781F420813181820F931FF6
:1014D00020912E0230912F022817390751F5F093F1
:1014E0002F02E0932E0267C0ED0120E030E0CE171E
:1014F000DF0740F44A815B819E0141155105F1F0FF
:10150000EA01F5CFD383C28340815181840F951FB7
:10151000C817D90759F488819981840F951F0296BD
:10152000918380838A819B819383828321153105F6
:1015300029F4F0933102E09330023DC0E901FB83CE
:10154000EA8349915991C40FD51FEC17FD0761F447
:1015500080819181840F951F0296E9019983888388
:10156000828193819B838A83E0E0F0E012968D91E3
:101570009C911397009719F0FD01DC01F7CF8D9135
:101580009C9111979D012E5F3F4F820F931F2091D9
:101590002E0230912F022817390769F4309729F469
:1015A000109231021092300202C013821282B09364
:1015B0002F02A0932E02DF91CF910895A0E0B0E01A
:1015C000E4EEFAE00C949108EC01009721F4CB01D1
:1015D0000E94BD09B4C0FC01E60FF71F9C01225018
:1015E0003109E217F30708F4A8C0D9010D911C9145
:1015F000119706171707B0F00530110508F49BC0C6
:10160000C80104978617970708F495C0025011097E
:10161000061B170B019311936D937C93CF010E94CE
:10162000550A89C05B01A01AB10A4C01800E911EB7
:10163000A0913002B0913102612C712CE12CF12C7F
:10164000109709F446C08D919C911197A815B90582
:10165000B1F56C0142E0C40ED11CCA14DB0478F170
:101660004C018A189B08640142E0C40ED11C1296FA
:10167000BC9012971396AC91B5E0CB16D10440F014
:10168000B282A38391828082D9016D937C9309C039
:101690000E5F1F4F800F911FF90191838083EB2D07
:1016A000FA2FE114F10431F0D7011396FC93EE9375
:1016B000129741C0F0933102E09330023CC06816AB
:1016C000790608F43C017D0112960D90BC91A02D85
:1016D000B7CF80912E0290912F0288169906E1F4DF
:1016E00066167706C8F48091000190910101009779
:1016F00041F48DB79EB74091040150910501841BC0
:10170000950BE817F907C8F4F0932F02E0932E0227
:10171000F901718360830FC0CB010E94BD097C0178
:10172000009759F0A801BE010E94A90BCE010E94AA
:10173000550AC70104C0CE0102C080E090E0CDB7D9
:10174000DEB7EEE00C94AD0881E090E0F8940C94E4
:10175000B90BFB01DC0102C001900D9241505040D9
:10176000D8F70895FB01DC0101900D920020E1F70C
:10177000089510E0C8E5D0E004C0FE010E94B7095A
:0C1780002196C935D107C9F7F894FFCFB6
:10178C00000032028000000000006301CC00FA006F
:10179C00B0012B0109011D010D0A00746F707069F5
:0617AC006E672E2E000006
:00000001FF
