:100000000C9467000C948F000C948F000C948F005C
:100010000C948F000C948F000C948F000C948F0024
:100020000C948F000C948F000C948F000C948F0014
:100030000C948F000C948F000C948F000C948F0004
:100040000C944F030C948F000C941D030C94F70236
:100050000C948F000C948F000C948F000C948F00E4
:100060000C948F000C948F0086028C029602A402DE
:10007000A602AC02B602C402D602D80200000008F2
:10008000000201000003040700000000000000005F
:1000900000000000250028002B00000000002400C4
:1000A00027002A00040404040404040402020202D7
:1000B000020203030303030301020408102040802B
:1000C00001020408102001020408102099031124E1
:1000D0001FBECFEFD8E0DEBFCDBF11E0A0E0B1E0A2
:1000E000EEE9FBE002C005900D92A231B107D9F70D
:1000F00021E0A2E1B1E001C01D92A23DB207E1F70B
:1001000010E0C7E6D0E004C02197FE010E94A705D9
:10011000C636D107C9F70E94FA030C94CD050C949A
:10012000000090E0FC01E854FF4F2491FC01EC55E5
:10013000FF4F8491882399F090E0880F991FFC016C
:10014000E656FF4FA591B491FC01E057FF4F859112
:1001500094918FB7F894EC91E22BEC938FBF0895B4
:10016000CF92DF92EF92FF920F931F93CF93DF9383
:100170006C017A018B01C0E0D0E0CE15DF0581F083
:10018000D8016D918D01D601ED91FC910190F08126
:10019000E02DC6010995892B11F02196EECF7E0145
:1001A000C701DF91CF911F910F91FF90EF90DF90EA
:1001B000CF900895089580E090E00895FC01538D5C
:1001C000448D252F30E0842F90E0821B930B541731
:1001D00010F0CF96089501970895FC01918D828DBE
:1001E000981761F0828DDF01A80FB11D5D968C918B
:1001F000928D9F5F9F73928F90E008958FEF9FEF96
:100200000895FC01918D828D981731F0828DE80F51
:10021000F11D858D90E008958FEF9FEF0895FC010B
:10022000918D228D892F90E0805C9F4F821B9109D8
:100230008F73992708958BE191E00E940F0121E0CF
:10024000892B09F420E0822F0895FC01848DDF01C1
:10025000A80FB11DA35ABF4F2C91848D90E0019639
:100260008F739927848FA689B7892C93A089B18928
:100270008C91837080648C93938D848D981306C0C9
:100280000288F389E02D80818F7D80830895EF922D
:10029000FF920F931F93CF93DF93EC0181E0888F40
:1002A0009B8D8C8D981305C0E889F989808185FD27
:1002B00026C0F62E0B8D10E00F5F1F4F0F73112716
:1002C000E02E8C8DE8120CC00FB607FCFACFE8893F
:1002D000F989808185FFF5CFCE010E942501F1CFFC
:1002E0008B8DFE01E80FF11DE35AFF4FF0829FB79F
:1002F000F8940B8FEA89FB89808180620AC09FB7DE
:10030000F894EE89FF896083E889F9898081837098
:10031000806480839FBF81E090E0DF91CF911F9147
:100320000F91FF90EF900895CF93DF93EC01888DAC
:100330008823C9F0EA89FB89808185FD05C0A889E9
:10034000B9898C9186FD0FC00FB607FCF5CF80816F
:1003500085FFF2CFA889B9898C9185FFEDCFCE01B9
:100360000E942501E7CFDF91CF9108958BE191E0C5
:100370000E940F0104972CF08BE191E00E94ED00A8
:10038000F5CF08950E941B0181110C94B6010895C8
:1003900090E0FC01E458FF4F2491FC01E854FF4F2A
:1003A0003491FC01EC55FF4FE491EE2309F43CC07D
:1003B000222339F1233091F038F42130A9F0223092
:1003C00001F584B58F7D12C0273091F02830A1F05F
:1003D0002430B9F4809180008F7D03C0809180002B
:1003E0008F77809380000DC084B58F7784BD09C05E
:1003F0008091B0008F7703C08091B0008F7D809393
:10040000B000F0E0EE0FFF1FE057FF4FA591B49151
:100410009FB7F894611104C08C913095382302C0C5
:10042000EC913E2B3C939FBF08950F931F93CF9366
:10043000DF93EC018B01888599850297F1F4613097
:10044000710569F024F4672BC1F460E009C06230E3
:10045000710559F06330710581F460E007C061E017
:100460008C850E94C80161E005C061E08C850E9416
:10047000C80160E08E850E94C8018885998504972F
:10048000B9F501301105B1F04CF40115110581F5F4
:1004900061E08C850E94C80160E011C00230110546
:1004A000B9F00330110521F561E08C850E94C80187
:1004B00060E013C060E08C850E94C80161E08E8519
:1004C0000E94C80161E088890E94C80160E00DC0F7
:1004D00060E08C850E94C80161E08E850E94C801A1
:1004E00060E088890E94C80161E08A890E94C80191
:1004F00088859985059709F073C00A30110508F0C1
:100500006FC0F801EC5CFF4F0C94A70560E08C8590
:100510000E94C80161E051C060E08C850E94C80162
:1005200061E08E850E94C80160E04BC060E08C8570
:100530000E94C80161E08E850E94C80160E0888940
:100540000E94C80161E041C060E001C061E08C85AB
:100550000E94C80161E005C061E08C850E94C8016D
:1005600060E08E850E94C80160E009C061E08C8572
:100570000E94C80160E08E850E94C80161E0888900
:100580000E94C80161E00DC061E08C850E94C80135
:1005900060E08E850E94C80161E088890E94C801E0
:1005A00060E08A890E94C80160E013C061E001C078
:1005B00060E08C850E94C80160E08E850E94C801C1
:1005C00061E088890E94C80160E08A890E94C801B0
:1005D00061E08C89DF91CF911F910F910C94C8013C
:1005E000DF91CF911F910F9108950E94C8051F922E
:1005F0000F920FB60F9211242F933F934F935F9357
:100600006F937F938F939F93AF93BF93EF93FF93DA
:100610008BE191E00E942501FF91EF91BF91AF9195
:100620009F918F917F916F915F914F913F912F910A
:100630000F900FBE0F901F9018951F920F920FB63C
:100640000F9211242F938F939F93EF93FF93E09139
:100650002B01F0912C018081E0913101F091320168
:1006600082FD12C09081809134018F5F8F73209141
:100670003501821751F0E0913401F0E0E55EFE4F64
:10068000958F8093340101C08081FF91EF919F91FC
:100690008F912F910F900FBE0F901F9018951F9262
:1006A0000F920FB60F9211242F933F938F939F9326
:1006B000AF93BF938091130190911401A091150104
:1006C000B09116013091120123E0230F2D3720F451
:1006D0000196A11DB11D05C026E8230F0296A11D9C
:1006E000B11D209312018093130190931401A093E4
:1006F0001501B09316018091170190911801A091F6
:100700001901B0911A010196A11DB11D8093170125
:1007100090931801A0931901B0931A01BF91AF9162
:100720009F918F913F912F910F900FBE0F901F902F
:100730001895CF93DF93EBE1F1E01382128288EEFC
:1007400093E0A0E0B0E084839583A683B78384E040
:1007500091E09183808385EC90E09587848784EC99
:1007600090E09787868780EC90E0918B808B81EC7E
:1007700090E0938B828B82EC90E0958B848B86EC5F
:1007800090E0978B868B118E128E138E148EC8EB91
:10079000D1E01B861A86198218821E8A1F8A188E3B
:1007A000198E80E098E09F838E8388E090E09D879B
:1007B0008C8789E090E09F878E878AE090E0998B14
:1007C000888B8BE090E09B8B8A8B88E00E94910065
:1007D0008E850E94910088890E9491008A890E94DA
:1007E00091001D8A1C8A84E090E099878887DF91B8
:1007F000CF910895CF93DF93CDB7DEB76A970FB649
:10080000F894DEBF0FBECDBF789484B5826084BDFE
:1008100084B5816084BD85B5826085BD85B5816004
:1008200085BD80916E00816080936E001092810082
:10083000809181008260809381008091810081603D
:1008400080938100809180008160809380008091FE
:10085000B10084608093B1008091B000816080938A
:10086000B00080917A00846080937A0080917A0051
:10087000826080937A0080917A00816080937A0010
:1008800080917A00806880937A001092C100E09194
:100890002B01F0912C0182E08083E0912701F091FF
:1008A00028011082E0912901F0912A018FEC8083C8
:1008B00010923301E0912F01F091300186E08083A6
:1008C000E0912D01F0912E01808180618083E09183
:1008D0002D01F0912E01808188608083E0912D01AF
:1008E000F0912E01808180688083E0912D01F0914C
:1008F0002E0180818F7D808388248A9453E0952EF9
:10090000A12CB12C412C67E8562E63E9662E63E0DA
:10091000762E74E0272E312C8AE1E8EBF1E0DE013F
:10092000119601900D928A95E1F780E480937C0006
:1009300080917A00806480937A0080917A0086FDAD
:10094000FCCFA091780080917900B0E0B82B24E62C
:1009500030E00E94AD05A50194010E9443056901A4
:100960007A01121613060CF08BC02F813885032EE6
:10097000000C440B550BC301B2010E944305CA0190
:10098000B9019601DD0C440B550B0E9443052B83E6
:100990003C834D835E8381E090E09A83898304E108
:1009A00010E00115110509F46BC03FB7F894809170
:1009B000170190911801A0911901B0911A0126B563
:1009C000A89B05C02F3F19F00196A11DB11D3FBF87
:1009D000BA2FA92F982F8827820F911DA11DB11D15
:1009E00042E0880F991FAA1FBB1F4A95D1F74F8974
:1009F000588D698D7A8D6C017D01C41AD50AE60A7D
:100A0000F70A4B815C816D817E81C416D506E606AE
:100A1000F70638F28F8B988FA98FBA8F29813A8188
:100A20008B859C852130310559F401969C878B87F5
:100A30002F8138858217930771F41C861B860BC0A3
:100A4000892B21F48F8198859C878B878B859C854A
:100A500001979C878B870150110929853A858B85E1
:100A60009C852530310519F46AE070E001C0B101C0
:100A70000E949305BC01CE0101960E94150291CF00
:100A80000E94C20149CF052E97FB1EF400940E94DC
:100A90005A0557FD07D00E94620507FC03D04EF4AB
:100AA0000C945A0550954095309521953F4F4F4FE6
:100AB0005F4F089590958095709561957F4F8F4F0A
:100AC0009F4F0895A1E21A2EAA1BBB1BFD010DC06A
:100AD000AA1FBB1FEE1FFF1FA217B307E407F507EE
:100AE00020F0A21BB30BE40BF50B661F771F881FCA
:100AF000991F1A9469F760957095809590959B0160
:100B0000AC01BD01CF010895A29FB001B39FC00108
:100B1000A39F700D811D1124911DB29F700D811D29
:100B20001124911D089597FB072E16F4009407D009
:100B300077FD09D00E94B40507FC05D03EF49095DE
:100B400081959F4F0895709561957F4F0895EE0FA1
:100B5000FF1F0590F491E02D09940E948405B7FFD2
:100B60000895821B930B0895AA1BBB1B51E107C07C
:100B7000AA1FBB1FA617B70710F0A61BB70B881F2D
:100B8000991F5A95A9F780959095BC01CD010895BC
:0E0B900081E090E0F8940C94CD05F894FFCF2E
:100B9E00000000004701B000DE0094010F01ED00DF
:020BAE00010143
:00000001FF
